:02000000E52BEE
:06000600000000000800EC
:10000C000F3083120313FC004730FD00FD0B0C284E
:0A001C00FC0B0C2800000000080097
:0E002600213083120313FD00FD0B1728080084
:0E003400F201F101F001F801F30100300800C3
:1000420083120313F801F9011030FC00710DF80D51
:10005200F90D7408F8027508031C750FF9020318EC
:1000620039287408F80775080318750FF907031083
:0A007200F00DF10DFC0B272808002B
:10007C0083120313DE1B44288613452886175E1B48
:10008C00492806134A280617DE1A4E2886124F28CE
:10009C0086165E1A53280612542806163418582849
:1000AC00061559280611861503208611DE196028BD
:1000BC008613612886175E196528061366280617AD
:1000CC00DE186A2886126B2886165E186F280612B0
:1000DC00702806163418742806157528061186150E
:1000EC0003208611341C7C2806207D281320080050
:1000FC007B15FB1F88280130F300F201F101F001A0
:08010C00FA0DF20CFF300800AF
:08011400FA1FF213003008008D
:10011C0083120313DC0105305C0203189C285C0875
:10012C005B07840020308000DC0A91285C085B07A8
:10013C0084008001DC035C085B07DD000A30F400FE
:10014C00F5015908F0005A08F10021207808F00058
:10015C007908F1003030F0075D08840070088000E9
:10016C000A30F400F5015908F0005A08F10021207A
:10017C007008D9007108DA0000307106031DC82818
:10018C0000307006031DCB28CD28DC03A128080005
:10019C00A0017208031DE3287108F2007008F10039
:1001AC00F001A0157208031DE3287108F200F1019B
:1001BC00A011201672080319F1282008F302031D60
:1001CC00031CF5280310F21BF928F00DF10DF20DAC
:1001DC00F30BE928F5280130FC001A20FC2802302A
:0E01EC00FC007E20FC280430FC008A20080065
:1001FA000E3083120313FD00FD0B012900000800D5
:10020A007B14FB1F1029F201FA1FFF30F200F100E4
:0A021A00F000FA0DF20CFF300800AE
:100224008312031334105908DE003E2034140800EE
:06023400FB15FF3008007D
:10023A00FB14FB1F2729FF30F300F200F100F00046
:08024A00FA0DF20CFF30080070
:0E0252008312031336088A0035088200080064
:10026000831203139F01C0309F0483161F179F172B
:1002700083125008F000F00D7010F00D7010F00DAA
:10028000701070089F041F14FD201F151F1D4A29A0
:10029000000046291F101E08F100F00183161E08F9
:0802A000F0040030F104080035
:1002A80083120313D501D6015008D7005108D8008E
:1002B80080305106F00080307002031D652900303F
:1002C8005002031873290130D5000030D6005008B9
:1002D800003CD7005108031C013ED801D80257083A
:1002E800D9005808DA005208DB008E200630D30007
:1002F8000030D4005408003C031D84295308003CF6
:1003080003189F2953085207F20001305302F000E6
:100318000030031C013E5402F100700852078400AB
:100328000008F00072088400700880000130D302D1
:10033800031CD4037E29520884002030800055080D
:1003480056040319BD29D301D40153085207840068
:100358000008203A031DB429D30A0319D40AA9298D
:100368000130D302031CD4035308520784002D30F4
:0403780080000800F9
:10037C0083120313FB017308031D77080319152A55
:10038C0072087606FA007708F3077E30031CD22930
:10039C00F3020318182AD529F302031C1B2A72082E
:1003AC00F8007108FC007008FD00F817F617031030
:1003BC00F201F101F0011830A0007D1CEF29740846
:1003CC00F00775080318750FF10776080318760FF8
:1003DC00F207F20CF10CF00CF80CFC0CFD0C0310F9
:1003EC00A00BE329F21BFF29F80DF00DF10DF20D16
:1003FC00F3037B1B701C112AF81F112AF00A031936
:10040C00F10A0319F20A031D112AF20CF10CF00C7B
:10041C00F30A0319182AFA1FF21300301D2A0130AF
:10042C001A201D2A02301D211D2A04307E200000B6
:02043C000800B6
:10043E00831203137008F8007108F000F101F20145
:10044E00F301FB01FC019630F300FA017008F10094
:0C045E007808F000F801F201CE20080040
:10046A0083120313FB01FC01FA0173080319742AAE
:10047A00F2178E30F302F31B452A0319452A772A0D
:10048A00F309F30A08307302031C5A2AF300F10D28
:10049A007208F100F20108307302031C5A2AF10DA6
:1004AA00F1017308031D0310622A73080319622AF3
:1004BA000310F20CF10CF30B5D2A7B1B711C6C2AE6
:1004CA00031C6C2AF10A0319F20AF21B832AFA1F87
:1004DA00862AF209F109F10A0319F20A862AF201B7
:1004EA00F101862A7B14FB1F892AF201FA1F892A45
:1004FA00FF30F200F100FA0DF20C892A0130FC00FB
:10050A008B2A0030FC008B2AFF30FC00FC08031900
:0E051A008F2A05217108F0007208F100080018
:100528008316031386110611061286120613861304
:1005380083128611061186130613861206120620E8
:100548000620062086160616861503208611062024
:10055800861503208611062086150320861106209D
:10056800061286150320861106208615032086119B
:10057800861286178615032086110620861306160E
:10058800861503208611061286150320861106207B
:100598008615032086110616861503208611062067
:1005A8000612861503208611861706178616061664
:0C05B8008615032086110620341408006C
:1005C400F42A803083120313D000072BC030D000EC
:1005D400072B9430D000072BD430D000072B803069
:1005E400D000072B831203135008013A0319E32A9E
:1005F4005008023A0319E82A5008033A0319EB2A6F
:100604005008043A0319EE2AF12A5103F000500865
:10061400F0077008D0007008DE003E203410D301CB
:1006240053085207840000080319202B530852076B
:1006340084000008D9001221D30A122B34140800B4
:10064400831203137408003A031D3D2B7508003A06
:10065400031D3D2B7608003A031D3D2B7708003A15
:10066400031D3D2BFF30F000FF30F1007F30F2001E
:10067400FF30F300D82B8312031377080319CC2B14
:1006840073080319CF2B720876068039FA00F21723
:10069400F617A0017208F8007108FC007008FD004C
:1006A4007408FD027508031C750FFC027608031C10
:1006B400760FF802F801FC01FD01031C682B0310FE
:1006C400F20CF10CF00CF80C0130A0007708F302E6
:1006D400031C722B7E302007F3070318D22B772BD1
:1006E4007E302007F307031CD52B1830FA07FD0DC5
:1006F400FC0DF80DF00DF10DF20DA00D7408F002D3
:100704007508031C750FF1027608031C760FF202BC
:10071400760DA004201C902B7D149B2B7408F007ED
:1007240075080318750FF10776080318760AF2079F
:100734007D10FA031F307A05031D792B7B1B7D1C6A
:10074400C22B0310F00DF10DF20DA00D7408F00290
:100754007508031C750FF1027608031C760FF2026C
:10076400760D20040139FD070318FC0A0319F80A61
:10077400031DC22BF80CFC0CFD0CF30A0319D22B3D
:10078400FA1FF8137808F2007C08F1007D08F000E5
:100794000030D72B01301A21D72B02301A20D72B47
:0E07A40004301D21D72B08307E2000000800F5
:1007B20029218A110A128000840AB50A0319B60A8D
:0807C200F003031DD92B080010
:1007CA00543083120313A1006530A2006D30A300D8
:1007DA007030A4002E30A500A6014330A700613076
:1007EA00A8007230A9007330AA00AB015730AC00E0
:1007FA006530AD006C30AE006330AF006F30B000D2
:10080A006D30B1006530B200B301CE01CF010130C5
:10081A00831685008801FF308700831288018701CB
:10082A0094220130DE003E200C30DE003E200130F2
:10083A00D0000230D1002C30D200E2221030FB006E
:10084A003930FC000D30FD00FD0B292CFC0B292C46
:10085A00FB0B292C000000000130DE003E20013095
:10086A00D0000130D1002130D200E2220230D00083
:10087A000130D1002730D200E222D00130211F22DC
:10088A000030F4000030F5002030F6008130F70027
:10089A00BE210030F400C030F5007F30F600883009
:1008AA00F70022230030F4000030F5004830F6004B
:1008BA008530F700BE2135227008B7007108B800EC
:1008CA007008D9007108DA004830DB008E20013048
:1008DA00D0000730D1004830D200E2223808003C6C
:1008EA00031D792C3708283C03187D2C08157E2C0B
:1008FA0008118718D82C00304F02031D862C0230AD
:10090A004E020318D82C08140B30FB002630FC00CA
:10091A005D30FD00FD0B8F2CFC0B8F2CFB0B8F2CFD
:10092A00000000000810071C9B2C982C0230FB00CA
:10093A000430FC00BA30FD00FD0BA12CFC0BA12CED
:10094A00FB0BA12C00000718AB2CA82C0230FB00D3
:10095A000430FC00BA30FD00FD0BB12CFC0BB12CAD
:10096A00FB0BB12C000088140830FB001B30FC0084
:10097A002730FD00FD0BBF2CFC0BBF2CFB0BBF2C43
:10098A008810CE0A0319CF0A4E08D0004F08D100AA
:10099A003930D20054210230D0000730D10039302A
:1009AA00D200E2227E2C0719322D4F08003C031D8B
:1009BA00E02C4E08003C0318322D08160B30FB00C1
:1009CA002630FC005D30FD00FD0BE92CFC0BE92C08
:1009DA00FB0BE92C000000000812871DF52CF22CF5
:1009EA000230FB000430FC00BA30FD00FD0BFB2C8A
:1009FA00FC0BFB2CFB0BFB2C00008719052D022D91
:100A0A000230FB000430FC00BA30FD00FD0B0B2D58
:100A1A00FC0B0B2DFB0B0B2D000088160830FB007E
:100A2A001B30FC002730FD00FD0B192DFC0B192D86
:100A3A00FB0B192D88120130CE02031CCF034E087E
:100A4A00D0004F08D1003930D20054210230D000F2
:0E0A5A000730D1003930D200E222422C332D79
:02400E004A2F37
:00000001FF
